S01700004763634170706C69636174696F6E312E737265635B
S11300000C94B5000C94D2000C94D2000C94D20041
S11300100C94D2000C94D2000C94D2000C94D20014
S11300200C94D2000C94D2000C94D2000C94D20004
S11300300C94D2000C94D2000C94D2000C94D200F4
S11300400C9416010C94D2000C94D2000C94D2009F
S11300500C94D2000C94D2000C94D2000C94D200D4
S11300600C94D2000C94D2006E616E00696E66002E
S113007000407A10F35A00A0724E18090010A5D45B
S1130080E80000E87648170000E40B54020000CAB8
S11300909A3B000000E1F5050000809698000000FE
S11300A040420F000000A08601000000102700005D
S11300B00000E803000000006400000000000A00E3
S11300C0000000000100000000002C76D888DC67E6
S11300D04F0823DFC1DFAE59E1B1B796E5E3E4533E
S11300E0C63AE651997696E8E6C28426EB898C9B5B
S11300F062ED407C6FFCEFBC9C9F40F2BAA56FA5FB
S1130100F490055A2AF75C936B6CF9676DC11BFC7C
S1130110E0E40D47FEF520E6B500D0ED902E030097
S1130120943577050080841E080000204E0A0000E4
S113013000C80C333333330F986E12831141EF8DA3
S11301402114893BE65516CFFEE6DB18D1844B38E3
S11301501BF77C1D901DA4BBE424203284725E2214
S11301608100C9F124ECA1E53D2711241FBECFEF86
S1130170D8E0DEBFCDBF11E0A0E0B1E0E6E3FCE1F2
S113018002C005900D92A03FB107D9F722E0A0EF7D
S1130190B1E001C01D92A430B207E1F70E949003C0
S11301A00C94190E0C940000883058F082E291E00F
S11301B09F938F930E949E0D0F900F9080E090E08C
S11301C00895ECE7F0E09081892B8083EAE7F0E082
S11301D0808180648083808186FDFDCFECE7F0E040
S11301E08081807F80838091780090917900089548
S11301F0BC0180E090E00E949C072AE939E949E9C2
S113020050E40E94530820E030E040E85AE30E94A2
S113021053082CEB34E743E55FE30E94B80625E27C
S113022036E041E05DE30E942A0708951F920F9291
S11302300FB60F9211248F939F93AF93BF93809126
S1130240F1019091F201A091F301B091F401409673
S1130250A11DB11D8093F1019093F201A093F301CC
S1130260B093F4018091F00190E3980F9D3718F456
S11302709093F00116C08D548093F0018091F101A8
S11302809091F201A091F301B091F4010196A11DA6
S1130290B11D8093F1019093F201A093F301B09307
S11302A0F4018091F5019091F601A091F701B091CC
S11302B0F8010196A11DB11D8093F5019093F601FB
S11302C0A093F701B093F801BF91AF919F918F91E3
S11302D00F900FBE0F901F901895F8946091F10144
S11302E07091F2018091F3019091F4017894089552
S11302F0F89485B5836085BDEEE6F0E08081816089
S113030080831FBAE9E6F0E080818C608083E99AFB
S11303107894089580E90E945C068CEA0E94900615
S113032080E20E94900680E90E9484068EEE0E947C
S113033090060E9487060895CF93DF9380E90E9478
S11303405C068AEA0E94900681E90E9484060E9463
S1130350A206C82F0E94AD06D82F0E948706CC2380
S1130360B4F0DD233CF06C2F70E080E090E00E945C
S11303709C0732C06C2F70E080E090E00E949E07E2
S113038020E030E040E05FE30E94B90625C0DD23B1
S11303907CF06C2F619570E080E090E00E949E07F5
S11303A09B01AC0160E070E0CB010E94B80614C070
S11303B06C2F609570E080E090E00E949E0720E042
S11303C030E040E05FE30E94B9069B01AC0160E0CD
S11303D070E0CB010E94B806DF91CF910895CF93CE
S11303E0C82F8EE40E945C068091F9018C2B0E9438
S11303F090060E948706CF910895CF93C82F8460FA
S11304000E94EF0185E08A95F1F700008C2F8B7F25
S11304100E94EF0187EC90E00197F1F700C0000023
S1130420CF910895CF93C82FCD7F8C2F0E94EF01D9
S11304308C2F0E94FD01CF910895CF93DF93D82F85
S1130440C62FC460807F8C2B0E9412028D2F829550
S1130450807F8C2B0E941202DF91CF91089561E07E
S11304600E941D0208950E942F0280E090E00895EA
S113047060E081E00E941D022FEF86E791E02150A9
S113048080409040E1F700C000000895CF93DF93CF
S1130490CDB7DEB728970FB6F894DEBF0FBECDBF39
S11304A098E0EEE0F1E0DE01119601900D929A954C
S11304B0E1F79091FA01691710F06FEF690FE62FD9
S11304C0F0E0EE0FFF1FEC0FFD1F9181890F60E03C
S11304D080680E941D0228960FB6F894DEBF0FBEF6
S11304E0CDBFDF91CF9108958091FC018B7F8093E4
S11304F0FC0160E088600E941D0208958091FC0167
S1130500982F94609093FC0160E08C600E941D021F
S1130510089580E091E0909301028093000280911D
S1130520F90188608093F90184E08093FA012FEF48
S113053080E792E0215080409040E1F700C0000045
S11305408EE40E945C0684E00E9490068FE891E0AD
S11305500197F1F700C0000080E30E9412028FE4CB
S113056096E40197F1F700C0000080E30E941202B4
S113057087E592E00197F1F700C0000080E30E9454
S1130580120287E592E00197F1F700C0000080E2D3
S11305900E94120287E592E00197F1F700C0000083
S11305A060E088E20E941D021092FC010E94740225
S11305B00E947E0282E08093FD0160E086E00E945A
S11305C01D028091FC0160E088600E941D0288E0A9
S11305D08093FB0160E088E10E941D020E943802C2
S11305E00895EF92FF921F93CF93DF93CDB7DEB7B9
S11305F02C970FB6F894DEBF0FBECDBF25E0E6E121
S1130600F1E0DE01119601900D922A95E1F727E0C1
S1130610EBE1F1E0DE01169601900D922A95E1F7E7
S1130620892BC9F5CE0101967C0116E061E0812F8A
S11306300E944602F70181917F0190E00E94B40D6F
S1130640FFEF21EE84E0F15020408040E1F700C04C
S113065000001F5F1B3051F79FEFE9E6F8E191506E
S1130660E040F040E1F700C0000016E061E0812FB7
S11306700E94460280E290E00E94B40D2FEF81EECA
S113068094E0215080409040E1F700C000001F5FDB
S11306901B3061F739C07E01E6E0EE0EF11C16E076
S11306A061E0812F0E944602F70181917F0190E071
S11306B00E94B40DFFEF21EE84E0F1502040804011
S11306C0E1F700C000001F5F1D3051F79FEFE9E61E
S11306D0F8E19150E040F040E1F700C0000016E07E
S11306E061E0812F0E94460280E290E00E94B40DF6
S11306F02FEF81EE94E0215080409040E1F700C05C
S113070000001F5F1D3061F72C960FB6F894DEBF12
S11307100FBECDBFDF91CF911F91FF90EF90089551
S11307202F923F924F925F926F927F928F929F92FD
S1130730AF92BF92CF92DF92EF92FF920F931F93EB
S1130740CF93DF93CDB7DEB767970FB6F894DEBFCC
S11307500FBECDBF0E942F060E9489020E948A010B
S11307600E9478018FEF8AB980EF87B98FE388B947
S11307701BB880E090E00E94F10286E00E94D40061
S11307800E94F8006D837E838F8398870E949C016A
S1130790762E672E582E492E2D8129873E813A8741
S11307A08F818B8798859C87322E232E8F87998300
S11307B0798A6A8A5B8A4C8A788A6A825B824C82EA
S11307C00F2EF8E68F2EF1E09F2EF02D09E811E0B0
S11307D00F2EF1E5AF2EF1E0BF2EF02D0E946D013A
S11307E06B017C0160E080E00E94460225E331E079
S11307F03F932F930E949E0D61E080E00E94460289
S11308008FE391E09F938F930E949E0D62E080E0BE
S11308100E9446028EE491E09F938F930E949E0D66
S113082063E080E00E9446028AE591E09F938F9303
S11308300E949E0D86B10FB6F894DEBF0FBECDBFE9
S11308408E3309F0A7C00E94380286B1873309F4B9
S113085096C03D863A882D8A2988BF8AAE8AB88890
S113086060E080E00E94460222E431E03F932F934F
S11308700E949E0D63E080E10E9446029F928F9247
S11308800E949E0D0E946D01DC01CB018C199D0913
S1130890AE09BF090F900F900F900F9089389341C4
S11308A0A105B10578F10E946D016B017C010E94E4
S11308B09C01762E672E582E492E9B898C89222DD9
S11308C0332D492F582F672D762D852D942D0E9479
S11308D02507882324F4272C362C5B8A4C8A6A81CA
S11308E09B818C812B2D362F492F582F672D762DE8
S11308F0852D942D0E944E08181624F4B72C6A8274
S11309005B824C8261E080E00E9446024F925F92DB
S11309106F927F928DE691E09F938F930E949E0D3C
S113092062E080E00E9446023C813F938B818F937A
S11309309A819F93BF922DE731E03F932F930E94BA
S11309409E0D63E080E00E9446029C899F932B8960
S11309502F933F922F921F930F930E949E0D86B167
S11309600FB6F894DEBF0FBECDBF873309F078CF42
S1130970B88A298A3A8A3D842D88AE88BF880E9425
S113098038029FEF21EE34E0915020403040E1F7EF
S113099000C0000086B18D3309F0F6C08FEF93ECF0
S11309A029E0815090402040E1F700C000000E94FF
S11309B0380280E480937C0087E880937A001E8765
S11309C00D871F85CFC060E080E00E944602BF9281
S11309D0AF920E949E0D63E080E10E9446029F92C6
S11309E08F920E949E0D0E946D01DC01CB018C1937
S11309F09D09AE09BF090F900F900F900F90893891
S1130A009341A105B10508F44DC00E946D016B012D
S1130A107C0120E030E048EC52E4E981632D722D42
S1130A20812F9E2F0E944E0818160CF49BC086E05E
S1130A300E94D4000E94F8006D837E838F83988780
S1130A40762F6E81982F8885272F362F492F582F80
S1130A50E981632D722D812F9E2F0E942507882303
S1130A602CF43D802E801F81888589837D816E8151
S1130A709F818885272F362F492F582FB985AA851E
S1130A80FB85EC856B2F7A2F8F2F9E2F0E944E08AB
S1130A90181644F49D8199872E812A873F813B87CC
S1130AA088858C8720E030E048EC52E4E981632DAE
S1130AB0722D812F9E2F0E944E081816DCF41F877A
S1130AC00D851E850E94380261E080E00E94460286
S1130AD085E991E09F938F930E949E0D9FEF23EDF4
S1130AE030E3915020403040E1F700C000000F9007
S1130AF00F903FC061E080E00E94460288858F939A
S1130B009F819F932E812F933D813F9388EA91E0AB
S1130B109F938F930E949E0D62E080E00E944602A4
S1130B2039813F931F932F923F928FEB91E09F93D4
S1130B308F930E949E0D63E080E00E9446023C85F4
S1130B403F938B858F939A859F9329852F9382ED6D
S1130B5091E09F938F930E949E0D0FB6F894DEBF91
S1130B600FBECDBF86B1873309F02DCF1F870D850A
S1130B701E850E9438029FEF21EE34E09150204000
S1130B803040E1F700C0000086B18B33D1F58FEF20
S1130B9093EC29E0815090402040E1F700C0000030
S1130BA00E94380286B1873309F160E080E00E9438
S1130BB0460285EE91E09F938F930E949E0D63E021
S1130BC080E10E9446029F928F920E949E0D61E0F6
S1130BD080E00E94460280E390E00E94B40D86B15A
S1130BE00F900F900F900F908733F9F60E94380200
S1130BF03FEF80E792E0315080409040E1F700C041
S1130C00000086B1813309F0E9CD0E9438022FEF4C
S1130C1030E782E0215030408040E1F700C000001E
S1130C2081E090E00E94F10280E090E067960FB6C8
S1130C30F894DEBF0FBECDBFDF91CF911F910F910E
S1130C40FF90EF90DF90CF90BF90AF909F908F90E8
S1130C507F906F905F904F903F902F9008951092E7
S1130C60B90088E48093B800089594EA9093BC0096
S1130C70ECEBF0E090819923ECF79091B900987F28
S1130C80983011F09031A1F48093BB0084E88093F4
S1130C90BC00ECEBF0E080818823ECF79091B90084
S1130CA0987F983139F081E0903429F480E00895F8
S1130CB081E0089580E00895CF93DF93ECEBF0E0BA
S1130CC024EAA9EBB0E0CBEBD0E034E844E920839C
S1130CD090819923ECF79C91987F983011F0903192
S1130CE0B1F78883308390819923ECF79C91987FA6
S1130CF0903211F0983529F44083908194FDFDCF12
S1130D00E6CFDF91CF9108950E943506089584E9D6
S1130D108093BC00ECEBF0E0808184FDFDCF08956E
S1130D208093BB0084E88093BC00ECEBF0E080810E
S1130D308823ECF79091B900987F81E0983209F408
S1130D4080E0089584EC8093BC00ECEBF0E08081BB
S1130D508823ECF78091BB00089584E88093BC005D
S1130D60ECEBF0E080818823ECF78091BB000895E0
S1130D705058BB27AA270E94D0060C9414080E943E
S1130D80060838F00E940D0820F039F49F3F19F44A
S1130D9026F40C9403080EF4E095E7FB0C94FD078D
S1130DA0E92F0E94250858F3BA17620773078407CE
S1130DB0950720F079F4A6F50C9447080EF4E09515
S1130DC00B2EBA2FA02D0B01B90190010C01CA0101
S1130DD0A0011124FF27591B99F0593F50F4503EAC
S1130DE068F11A16F040A22F232F342F4427585F9E
S1130DF0F3CF469537952795A795F0405395C9F7B6
S1130E007EF41F16BA0B620B730B840BBAF091506D
S1130E10A1F0FF0FBB1F661F771F881FC2F70EC00C
S1130E20BA0F621F731F841F48F4879577956795DF
S1130E30B795F7959E3F08F0B0CF9395880F08F0CB
S1130E409927EE0F9795879508950E94D90708F47E
S1130E5081E008950E943E070C9414080E940D0836
S1130E6058F00E94060840F029F45F3F29F00C94E2
S1130E70FD0751110C9448080C9403080E9425089E
S1130E8068F39923B1F3552391F3951B550BBB27B5
S1130E90AA2762177307840738F09F5F5F4F220FFA
S1130EA0331F441FAA1FA9F335D00E2E3AF0E0E8F1
S1130EB032D091505040E695001CCAF72BD0FE2F3B
S1130EC029D0660F771F881FBB1F261737074807CF
S1130ED0AB07B0E809F0BB0B802DBF01FF27935887
S1130EE05F4F3AF09E3F510578F00C94FD070C9447
S1130EF048085F3FE4F3983ED4F386957795679569
S1130F00B795F7959F5FC9F7880F911D96958795BB
S1130F1097F90895E1E0660F771F881FBB1F6217DA
S1130F2073078407BA0720F0621B730B840BBA0B98
S1130F30EE1F88F7E0950895E89409C097FB3EF406
S1130F4090958095709561957F4F8F4F9F4F992312
S1130F50A9F0F92F96E9BB279395F6958795779590
S1130F606795B795F111F8CFFAF4BB0F11F460FF50
S1130F701BC06F5F7F4F8F4F9F4F16C0882311F0A8
S1130F8096E911C0772321F09EE8872F762F05C0BC
S1130F90662371F096E8862F70E060E02AF09A9557
S1130FA0660F771F881FDAF7880F9695879597F94C
S1130FB00895990F0008550FAA0BE0E8FEEF1616E6
S1130FC01706E807F907C0F012161306E407F50739
S1130FD098F0621B730B840B950B39F40A2661F0AD
S1130FE0232B242B252B21F408950A2609F4A14050
S1130FF0A6958FEF811D811D089597F99F6780E85D
S113100070E060E008959FEF80EC089500240A9456
S11310101616170618060906089500240A941216CF
S11310201306140605060895092E0394000C11F402
S1131030882352F0BB0F40F4BF2B11F460FF04C0AF
S11310406F5F7F4F8F4F9F4F089557FD9058440F08
S1131050551F59F05F3F71F04795880F97FB991F13
S113106061F09F3F79F087950895121613061406D0
S1131070551FF2CF4695F1DF08C01616170618065D
S1131080991FF1CF86957105610508940895E89438
S1131090BB2766277727CB0197F908950E94D907C4
S11310A008F48FEF08950E9466080C9414080E94B7
S11310B0060838F00E940D0820F0952311F00C94D6
S11310C0FD070C94030811240C9448080E94250879
S11310D070F3959FC1F3950F50E0551F629FF00187
S11310E0729FBB27F00DB11D639FAA27F00DB11DA0
S11310F0AA1F649F6627B00DA11D661F829F222729
S1131100B00DA11D621F739FB00DA11D621F839FAF
S1131110A00D611D221F749F3327A00D611D231F85
S1131120849F600D211D822F762F6A2F11249F57D3
S113113050409AF0F1F088234AF0EE0FFF1FBB1FD6
S1131140661F771F881F91505040A9F79E3F510595
S113115080F00C94FD070C9448085F3FE4F3983E3C
S1131160D4F3869577956795B795F795E7959F5F3F
S1131170C1F7FE2B880F911D9695879597F90895D1
S1131180A0E1B0E0E6ECF8E00C943D0C7C011B011E
S11311906A01FC0117821682838181FF44C39E0188
S11311A02F5F3F4F3901F7019381F10193FD859141
S11311B093FF81911F01882309F431C3853239F4E7
S11311C093FD859193FF81911F01853239F4B70115
S11311D090E00E94620D56016501E5CF10E0512CAC
S11311E0912CFFE1F915D8F08B3279F038F4803284
S11311F079F08332A1F4F92DF0612EC08D3261F0C3
S1131200803369F4292D21602DC0392D3260932E4D
S1131210892D8460982E2AC0E92DE86015C097FCBA
S11312202DC020ED280F2A3088F496FE06C03AE03F
S1131230139F200D1124122F19C08AE0589E200DEF
S11312401124522EE92DE0629E2E10C08E3231F40C
S113125096FCE5C2F92DF0649F2E08C08C3621F46B
S1131260292D2068922E02C0883641F4F10193FDA5
S1131270859193FF81911F018111B3CF9BEB980F4F
S1131280933020F4992D9061805E07C09BE9980FFC
S1131290933008F066C1992D9F7E96FF16E09F73E8
S11312A0992E853619F49064992E08C0863621F457
S11312B0392F3068932E02C01111115097FE07C0C8
S11312C01C3350F444244394410E27E00BC01830DF
S11312D038F027E017E005C027E09CE3492E02C060
S11312E0212F412C560184E0A80EB11CF601608127
S11312F0718182819381042DA3010E94740C6C017D
S1131300F981FC87F0FF02C0F3FF06C091FC06C020
S113131092FE06C000E205C00DE203C00BE201C06C
S113132000E08C858C7019F001115AC29BC297FEA3
S113133010C04C0CFC85F4FF04C08A81813309F48D
S11313404A94141474F528E0241578F588E0482E9E
S11313502CC096FC2AC0812F90E08C159D059CF032
S11313603CEFC3163FEFD30674F0892D8068982EA6
S11313700AC0E2E0F0E0EC0FFD1FE10FF11D8081F7
S1131380803319F411501111F4CF97FE0EC0442488
S11313904394410E812F90E0C816D9062CF41C19F1
S11313A004C04424439401C010E097FE06C01C14FA
S11313B01D0434F4C601019605C085E090E002C026
S11313C081E090E001110196112331F0212F30E0EA
S11313D02F5F3F4F820F931F252D30E08217930715
S11313E014F4581A01C0512C892D897049F45520E0
S11313F039F0B70180E290E00E94620D5A94F7CF71
S1131400002329F0B701802F90E00E94620D93FC25
S113141009C0552039F0B70180E390E00E94620DC5
S11314205A94F7CF97FE4CC04601D7FE02C0812CD8
S1131430912CC60188199909F301E80FF91FFE8759
S1131440ED87960124193109388B2F87012F10E07D
S11314501195019511093FEF8316930629F4B701FD
S11314608EE290E00E94620DC814D9044CF08F857E
S113147098898815990524F4ED85FE85818101C03C
S113148080E3F1E08F1A91082D853E852F5F3F4F51
S11314903E872D87801691062CF0B70190E00E94BC
S11314A0620DD9CFC814D90441F49A81963320F43B
S11314B0953319F43C8534FF81E3B70190E04EC0C5
S11314C08A81813319F09C859F7E9C87B70190E0C7
S11314D00E94620D111105C094FC18C085E690E0CD
S11314E017C0B7018EE290E00E94620D1E5F82E099
S11314F001E0080FF301E80FF11D8081B70190E0CE
S11315000E94620D802F0113F3CFE6CF85E490E0B3
S1131510B7010E94620DD7FC06C0C114D10441F486
S1131520EC85E4FF05C0D194C194D1088DE201C0DB
S11315308BE2B70190E00E94620D80E32AE0C216BC
S1131540D1042CF08F5FFAE0CF1AD108F7CFB7019E
S113155090E00E94620DB701C601C0960E94620D20
S113156054C1833631F0833779F0833509F056C09E
S113157020C0560132E0A30EB11CF601808189839C
S113158001E010E0630112C05601F2E0AF0EB11C9D
S1131590F601C080D18096FE03C0612F70E002C0C6
S11315A06FEF7FEFC6010E94570D8C01F92DFF7775
S11315B014C0560122E0A20EB11CF601C080D180F5
S11315C096FE03C0612F70E002C06FEF7FEFC6018B
S11315D00E944C0D8C01F92DF0689F2EF3FD1AC06A
S11315E0852D90E008171907A8F4B70180E290E070
S11315F00E94620D5A94F4CFF60197FC859197FEF0
S113160081916F01B70190E00E94620D51105A94CC
S1131610015011090115110579F7F7C0843611F04D
S1131620893661F5560197FE09C024E0A20EB11C6B
S1131630F60160817181828193810AC0F2E0AF0E6C
S1131640B11CF60160817181072E000C880B990B87
S1131650F92DFF769F2E97FF09C090958095709580
S113166061957F4F8F4F9F4FF0689F2E2AE030E0A7
S1131670A3010E94BB0DC82EC6183FC0092D853793
S113168021F40F7E2AE030E01DC0097F8F3691F0EF
S113169018F4883559F0C3C0803719F0883711F031
S11316A0BEC0006104FF09C0046007C094FE08C006
S11316B0066006C028E030E005C020E130E002C04A
S11316C020E132E0560107FF09C084E0A80EB11CF6
S11316D0F601608171818281938108C0F2E0AF0ECE
S11316E0B11CF6016081718180E090E0A3010E9449
S11316F0BB0DC82EC6180F77902E96FE0BC0092D71
S11317000E7FC11650F494FE0AC092FC08C0092D45
S11317100E7E05C0DC2C092D03C0DC2C01C0D12EAB
S113172004FF0DC0FE01EC0DF11D8081803311F426
S1131730097E09C002FF06C0D394D39404C0802F4D
S1131740867809F0D39403FD11C000FF06C01C2D58
S1131750D51480F4150D1D190DC0D51458F4B70116
S113176080E290E00E94620DD394F7CFD51410F478
S11317705D1801C0512C04FF10C0B70180E390E054
S11317800E94620D02FF17C001FD03C088E790E0CC
S113179002C088E590E0B7010CC0802F867859F02C
S11317A001FF02C08BE201C080E207FD8DE2B701B8
S11317B090E00E94620DC11638F4B70180E390E016
S11317C00E94620D1150F7CFCA94F301EC0DF11D84
S11317D08081B70190E00E94620DC110F5CF15C061
S11317E0F4E0F51560F584E0581A93FE1FC001116A
S11317F027C02C8523FF2AC008E610E0392D30715C
S1131800932EF8018491811124C0552009F4E4CC6D
S1131810B70180E290E00E94620D5A94F6CFF7017E
S11318208681978126C08FEF9FEF23C0B70180E2A6
S113183090E00E94620D5A945110F8CFD8CF512CE9
S1131840B701802F90E00E94620DD3CF0CE610E028
S1131850D5CF91108052B70190E00E94620D0F5FC6
S11318601F4FCFCF23E0251510F483E0BDCF512CBB
S1131870C0CF6096E2E10C94590C2F923F924F92A4
S11318805F926F927F928F929F92AF92BF92CF920C
S1131890DF92EF92FF920F931F93CF93DF93CDB715
S11318A0DEB7CA1BDB0B0FB6F894DEBF0FBECDBF8D
S11318B009942A88398848885F846E847D848C845E
S11318C09B84AA84B984C884DF80EE80FD800C8167
S11318D01B81AA81B981CE0FD11D0FB6F894DEBF4A
S11318E00FBECDBFED010895283008F027E033275F
S11318F0DA01990F311D87FD91600096610571052C
S113190039F432602E5F3D9330E32A95E1F7089570
S11319109F3F30F080387105610509F03C5F3C5F02
S11319203D93913008F08068911DDF93CF931F930E
S11319300F93FF92EF92192F987F9695E92F969522
S11319409695E90FFF27E653FF4F99273327EE2497
S1131950FF24A701E70105900894079428F4360FA3
S1131960E71EF81E491F511D660F771F881F991F18
S11319700694A1F70590079428F4E70EF81E491F72
S1131980561FC11D770F881F991F661F0694A1F764
S11319900590079428F4F80E491F561FC71FD11D40
S11319A0880F991F661F771F0694A1F70590079467
S11319B020F4490F561FC71FD81F990F661F771FA2
S11319C0881F0694A9F784911095177041F0D69555
S11319D0C79557954795F794E7941A95C1F7E0E7AB
S11319E0F0E0689415901591359165919591059065
S11319F07FE27395E118F10A430B560BC90BD0092A
S1131A00C0F7E10CF11E431F561FC91FD01D7EF401
S1131A10703311F48A95E6CFE894015030F0080F42
S1131A200AF40027021708F4202F2395022F7A3393
S1131A3028F079E37D932A95E9F710C07D932A95E0
S1131A4089F6069497956795379517951794E11835
S1131A50F10A430B560BC90BD00998F023957E91DC
S1131A6073957A3308F070E37C932013B8F77E9172
S1131A7070617D9330F0839571E37D9370E32A95D3
S1131A80E1F71124EF90FF900F911F91CF91DF9117
S1131A90992787FD90950895FC0105906150704049
S1131AA00110D8F7809590958E0F9F1F0895FC0123
S1131AB06150704001900110D8F7809590958E0F79
S1131AC09F1F08950F931F93CF93DF93FB012381EF
S1131AD021FD03C08FEF9FEF2CC022FF16C046816B
S1131AE05781248135814217530744F4A081B18181
S1131AF09D012F5F3F4F318320838C932681378153
S1131B002F5F3F4F3783268314C08B01EC01FB0109
S1131B100084F185E02D0995892BE1F6D80116960C
S1131B208D919C911797019617969C938E93169777
S1131B30CE01DF91CF911F910F910895A0E0B0E005
S1131B40E4EAFDE00C944D0CAE014B5F5F4FFA01EB
S1131B5061917191AF0180910002909101020E9404
S1131B60C008E2E00C94690C6091000270910102DB
S1131B700E94620D0895FA01AA27283051F12031FC
S1131B8081F1E8946F936E7F6E5F7F4F8F4F9F4F0D
S1131B90AF4FB1E03ED0B4E03CD0670F781F891F4F
S1131BA09A1FA11D680F791F8A1F911DA11D6A0F1D
S1131BB0711D811D911DA11D20D009F468943F91D0
S1131BC02AE0269F11243019305D3193DEF6CF01CF
S1131BD00895462F4770405D4193B3E00FD0C9F795
S1131BE0F6CF462F4F70405D4A3318F0495D31FD02
S1131BF04052419302D0A9F7EACFB4E0A695979555
S1131C00879577956795BA95C9F70097610571052A
S1131C1008959B01AC010A2E069457954795379574
S1131C202795BA95C9F7620F731F841F951FA01DCE
S1091C300895F894FFCFB3
S1131C360000000200000000330200000000000063
S1131C4640001400540048454C4C4F474F4F444203
S1131C56594550696E204572726F72206164632023
S1131C6672656164004D41494E204D454E55004212
S1131C76312D54656D7065726174757265004232FA
S1131C862D48756D69646974790042332D48656120
S1131C9672742072617465004261636B00437572ED
S1131CA672656E743A20252E3166DF43004D6178E5
S1131CB63A20252E3166DF43004D696E3A20252EE3
S1131CC63166DF43004E6F2073656E736F7220704A
S1131CD6726573656E74210043757272656E742045
S1131CE668756D69646974793A20252E3266004DEB
S1131CF6696E2048756D69646974793A20252E32B7
S1131D0666004D61782048756D69646974793A2076
S1131D16252E32660048656172742052617465002E
S9030000FC
